:020000040800F2
:100000003072002059020008C9AC0008CBAC0008CF
:10001000CFAC0008D3AC0008D7AC0008000000004B
:100020000000000000000000000000009D0100082A
:10003000DBAC000800000000F1010008DFAC0008A4
:10004000730200087302000873020008BB6F000807
:1000500073020008730200087302000873020008AC
:10006000730200087302000873020008D1610008DF
:10007000DD610008E9610008F5610008016200081F
:100080000D6200081962000873020008730200087C
:10009000730200087302000873020008730200086C
:1000A000730200087302000873020008730200085C
:1000B000730200087302000873020008730200084C
:1000C000730200087302000873020008730200083C
:1000D000730200081F7800083F7800086378000862
:1000E00073020008EB6F0008730200087302000837
:1000F00073020008730200087302000825620008FA
:1001000073020008730200087302000873020008FB
:10011000BD780008E1780008730200087302000847
:10012000316200083B620008476200085362000821
:100130005F6200087302000873020008730200087F
:1001400073020008730200087302000873020008BB
:100150006B62000877620008836200080379000878
:10016000730200087302000873020008730200089B
:100170007302000873020008730200080000000008
:100180007302000873020008DFF80CD016F032F991
:100190000048004759860008307200202B4B196830
:1001A0000868B0E8F04F80F30988BFF36F8F4FF015
:1001B000000080F3118870470000000006480068C6
:1001C000006880F3088862B661B6BFF34F8FBFF353
:1001D0006F8F00DF00BF00BF08ED00E0DFF80C000C
:1001E000016841F470010160704700BF88ED00E0D4
:1001F000EFF30980BFF36F8F144B1A681EF0100FD6
:1002000008BF20ED108A20E9F04F106008B44FF0CD
:10021000500080F31188BFF34F8FBFF36F8F14F03E
:10022000EEF84FF0000080F3118808BC19680868E8
:10023000B0E8F04F1EF0100F08BFB0EC108A80F34A
:100240000988BFF36F8F704700BF00BFC81500203B
:10025000EFF30580704700000648804706480047D6
:10026000FEE7FEE7FEE7FEE7FEE7FEE7FEE7FEE766
:10027000FEE7FEE7E9AC00088901000808B500BF09
:100280008D48006840F480408B490860084600684B
:1002900000F48040009000BF00BF00BF081F00684E
:1002A00040F08050091F08600846006800F0805048
:1002B000009000BF00BF08BD70B5044601F09EFC71
:1002C0004FF47A71B0FBF1F5284600F099F900225D
:1002D0002146501E00F01EF9002070BD00B587B009
:1002E0007648006840F40070744908600846006869
:1002F00040F4806008600846006840F48070086040
:10030000032000F0F5F80F20FFF7D6FFFFF7B6FF48
:10031000142102A815F0E3FC00BF6748006840F014
:100320001000654908600846006800F01000019060
:1003300000BF00BF00BF60481438006840F00100F3
:100340005D49143908600846006800F0010001901A
:1003500000BF00BF4FF4C060029002200390012054
:100360000490032005900720069002A9544800F04D
:1003700049FD00221146252000F0CCF8252000F090
:1003800007F9002007B000BD704710B54FF0FF30EF
:1003900049492439086000200860401E091D086092
:1003A00000200860401E444934390860002008607D
:1003B000401E091D086000200860401E091D0860DD
:1003C00000200860FFF7E0FF002010BD3D480068F6
:1003D000401C3C49086070473A480068704731B596
:1003E000002405F0ADFD044600BF05F0A9FD001B8B
:1003F00000998842F9D338BD4FF0E020006920F021
:1004000002004FF0E021086170474FF0E0200069E2
:1004100040F002004FF0E021086170474FF0827019
:10042000704729480068000C704727480068C0F3EF
:100430000B0070472448406840F0010022494860A2
:1004400070472148406820F001001F49486070470C
:100450001D48406840F002001B49486070471A4838
:10046000406820F00200184948607047164840680C
:1004700040F004001449486070471348406820F079
:100480000400114948607047012090FAA0F1B1FAC8
:1004900081F10E4A02EB8101C1F80004704700208F
:1004A000012191FAA1F1B1FA81F1084A02EB81012F
:1004B000C1F800047047000044380240003C02408C
:1004C0000000024000000020002004E0000027425D
:1004D00010B5002807DA0A07140EBF4A00F00F0310
:1004E0001B1FD45403E00A07130EBC4A135410BD5B
:1004F00000BF00F00702B84B0C3B19684FF6FF0332
:100500001940B74B0B4343EA0221B34B0C3B196034
:1005100000BF70472DE9F05F80460D461646002764
:1005200000F054F9074639462A46334601F00700E1
:10053000C0F1070ABAF1040F02D94FF0040A01E032
:10054000C0F1070AD14600F1040ABAF1070F02D23E
:100550004FF0000A01E0A0F1030AD4464FF0010A6F
:100560000AFA09FAAAF1010A0AEA020A0AFA0CFAD4
:100570004FF0010B0BFA0CFBABF1010B0BEA030B79
:100580004AEA0B0421464046FFF7A2FFBDE8F09F70
:1005900000BF00F01F02012191404209920002F1C8
:1005A000E022C2F8001100BF704700BF00F01F0238
:1005B000012191408B4A430942F8231000BF704744
:1005C00000BF00BF00BF00BF00BFBFF34F8F00BF21
:1005D00000BF00BF80480C38006800F4E06080492C
:1005E0000843001D7C490C39086000BF00BF00BFF4
:1005F000BFF34F8F00BF00BF00BF00E000BFFDE7AB
:1006000070B504462546681EB0F1807F01D30120F5
:100610000FE0681E4FF0E02148610F214FF0FF30DE
:10062000FFF756FF00204FF0E021886107200861A6
:10063000002070BD4178684A803211600178F9B1BC
:10064000121D41681160017B0907C27A41EA02610B
:10065000827A41EAC241427B41EA8241827B41EA9D
:100660004241C27B41EA0241427A41EA0221027AD6
:1006700041EA420102781143574A8832116005E08D
:100680000021554A84321160121D1160704710B567
:1006900000F09CF810BD2DE9F043044620460028E8
:1006A00008DA4D4F00F00F0CACF1040C17F80C7089
:1006B0003F0902E0494F3F5C3F093D460E4606F0C8
:1006C0000700C0F10708B8F1040F02D94FF0040881
:1006D00001E0C0F10708C44600F10408B8F1070FB3
:1006E00002D24FF0000801E0A0F10308474625FAC6
:1006F00007F84FF0010909FA0CF9A9F1010908EA14
:100700000908C2F800804FF0010808FA07F8A8F1BC
:10071000010808EA0508C3F8008000BFBDE8F083BF
:1007200000BF00F01F02012191402E4A8032430990
:1007300042F8231000BF704710B501460846294A09
:100740008032430952F8232000F01F040123A34004
:100750001A400AB1012200E00022104610BD00BF7D
:1007600000F01F02012191401F4A430942F8231063
:1007700000BF704710B5014608461B4A8032430946
:1007800052F8232000F01F040123A3401A400AB1AD
:10079000012200E00022104610BD042808D14FF0CD
:1007A000E021096941F004014FF0E022116107E006
:1007B0004FF0E021096921F004014FF0E0221161BE
:1007C0007047704710B5FFF7FCFF10BD02480C38AA
:1007D0000068C0F30220704718ED00E000E400E07C
:1007E0000000FA0580E100E080E200E001460878C0
:1007F00010381823B0FBF3F2F648805C4865032AF2
:1008000005D908686FF30900001D086503E0086852
:100810006FF309000865086D704770B50446002540
:100820000CB9012070BD606A00B100BF022084F8DD
:10083000350020680568E8480540D4E9010108430F
:10084000E16808432169084361690843A1690843D5
:10085000E1690843216A08430543606A042803D11B
:10086000D4E90B0108430543206805602068456909
:1008700025F00705606A0543606A042801D1A06A73
:100880000543206845612046FFF7B0FF0020E06483
:10089000012084F835000020C4E770B504460CB987
:1008A000012070BD94F83500022801D10120F8E73D
:1008B0002068006820F0010021680860002021689D
:1008C000086021684860216888602168C8602168E4
:1008D00008612120216848612046FFF787FF05460F
:1008E00094F854103F208840A8600020E06484F809
:1008F000350000BF84F8340000BF00BFD1E730B539
:100900000468246824F4802405682C60046863600B
:100910008468402C04D10468A2600468E16003E0AC
:100920000468A1600468E26030BD2DE9F04104462E
:100930000D4616461F4600BF94F83400012802D128
:100940000220BDE8F081012084F8340000BF0220BD
:1009500084F835002068006820F0010021680860F4
:100960003B46324629462046FFF7C9FF206800680B
:1009700040F00100216808600020E2E72DE9F04125
:1009800004460D4616461F4600BF94F83400012861
:1009900002D10220BDE8F081012084F8340000BFBC
:1009A000022084F835002068006820F001002168EA
:1009B00008603B46324629462046FFF7A0FF2068E4
:1009C000006840F01E00216808602068406940F01F
:1009D0008000216848612068006840F001002168BB
:1009E00008600020D6E770B504460025206800683E
:1009F00020F001002168086005F0A2FA054612E027
:100A000005F09EFA401BB0F57A7F0CD9E06C40F0FF
:100A10002000E06400BF002084F8340000BF032001
:100A200084F8350070BD2068006800F001000028DF
:100A3000E6D100BF84F8340000BF012084F83500FF
:100A40000020EFE72DE9F84F04460F461646002038
:100A50000090256D2FB994F85410202000FA01F869
:100A600004E094F85410102000FA01F805F068FA38
:100A7000009064E0286814F8542F0821914000EA9F
:100A80000109286822785549914000EA010A28683E
:100A900014F854295149C91C914000EA010BB9F1DD
:100AA000000F05D1BAF1000F02D1BBF1000F2FD01A
:100AB000B9F1000F08D0E06C40F00100E06494F858
:100AC000541008208840A860BAF1000F08D0E06CEC
:100AD00040F00200E06494F8541040488840A86058
:100AE000BBF1000F09D0E06C40F00400E06494F822
:100AF00054103A48C01C8840A860042084F835008F
:100B000000BF002084F8340000BF0120BDE8F88F4A
:100B1000701CA0B12EB105F013FA0099401AB04232
:100B20000DD9E06C40F02000E064032084F835002B
:100B300000BF002084F8340000BF0320E6E72868E7
:100B400000EA0800002895D01FBB94F8541030200C
:100B50008840A8602068006800F4802088B1206880
:100B6000006800F4002018B9112084F835000BE06B
:100B70002068006800F4002030B1212084F835009E
:100B800002E0112084F8350000BF002084F8340012
:100B90001EE094F8541010208840A8602068006877
:100BA00000F4802088B12068006800F4002018B9A3
:100BB000312084F835000BE02068006800F4002044
:100BC00030B1412084F8350002E0312084F835004E
:100BD00000209BE7CA7D01083F8010F001008000E3
:100BE00070B50446256D286894F85420082191407A
:100BF000084000B32068006800F00400D8B1206805
:100C0000006820F004002168086094F8541008205F
:100C10008840A860E06C40F00100E064042084F8A3
:100C2000350000BF002084F8340000BFA06C10B174
:100C30002046A16C8847286894F854207049914058
:100C4000084000B32068406900F08000D8B12068F7
:100C5000406920F080002168486194F85410684889
:100C60008840A860E06C40F00200E064042084F852
:100C7000350000BF002084F8340000BFA06C10B124
:100C80002046A16C8847286894F854205C49C91C08
:100C90009140084008B32068006800F00200E0B10D
:100CA0002068006820F002002168086094F8541061
:100CB0005348C01C8840A860E06C40F00400E06429
:100CC000042084F8350000BF002084F8340000BF01
:100CD000A06C10B12046A16C8847286894F8542075
:100CE000102191400840C0B32068006800F008005F
:100CF00098B32068006800F48020B0B194F85410D4
:100D000010208840A8602068006800F4002018B90E
:100D1000312084F835001BE02068006800F40020D2
:100D2000B0B1412084F8350012E02068006800F47A
:100D3000807028B92068006820F0080021680860E9
:100D400094F8541010208840A860312084F83500B1
:100D5000206C10B12046216C8847286894F85420F4
:100D600020219140084018B32068006800F010006E
:100D7000F0B12068006800F48020D0B194F85410DD
:100D800020208840A8602068006800F4002028B96E
:100D9000606C68B12046616C884729E02068006873
:100DA00000F4002020B1E06B10B12046E16B8847D1
:100DB0001EE02068006800F4807028B92068006890
:100DC00020F010002168086094F85410202088401A
:100DD000A860E06CE064112084F8350000BF0020BA
:100DE00084F8340000BFE06B10B12046E16B884707
:100DF00070BD014691F8350070470146C86C7047D8
:100E000001008000F8B502460B46002500240020B2
:100E10000021DFE0012606FA01F51E6806EA050456
:100E2000AC4271D15E68022E02D05E68122E13D1E0
:100E3000CF0802F1200656F827004E07F70E0F26BE
:100E4000BE40B0434F07FF0E1E69BE403043CF087F
:100E500002F1200646F8270010684F000326BE4026
:100E6000B0431E7906F003064F00BE4030431060C9
:100E70005E68012E08D05E68022E05D05E68112ED5
:100E800002D05E68122E13D190684F000326BE4038
:100E9000B0434F00DE68BE4030439060506801268A
:100EA0008E40B0431E79C6F300168E40304350602A
:100EB000D0684F000326BE40B0434F009E68BE403E
:100EC0003043D0605E6806F08056B6F1805FA8D1EE
:100ED00000BFB04E366846F48046AE4F3E603E4698
:100EE000366806F48046009600BF00BFAA4E8F0801
:100EF00056F827008E07370F0F26BE40B043A74E87
:100F0000B24202D1002629E063E0A54EB24201D1EF
:100F1000012623E0A34EB24201D102261EE0A24EDA
:100F2000B24201D1032619E0A04EB24201D10426FB
:100F300014E09F4EB24201D105260FE09D4EB24211
:100F400001D106260AE09C4EB24201D1072605E0F7
:100F50009A4EB24201D1082600E009268F073F0FC2
:100F6000BE4030438C4E8F0846F82700944E3068C0
:100F7000A0435E6806F48036B6F5803F00D120437A
:100F80008F4E3060361D3068A0435E6806F4003630
:100F9000B6F5003F00D12043894E361D3060361D26
:100FA0003068A0435E6806F48016B6F5801F00D155
:100FB0002043834E08363060361D3068A0435E689B
:100FC00006F40016B6F5001F00D120437C4E0C3607
:100FD0003060491C1029FFF41DAFF8BDF0B50C4678
:100FE000002500220023002197E0012606FA01F5E2
:100FF00004EA0502AA427DD106684FEA410C0327A4
:1010000007FA0CF7BE430660CF0800F1200656F839
:1010100027604F074FEAD76C0F2707FA0CF7BE433C
:101020004FEAD10C00F1200747F82C6086684FEAA0
:10103000410C032707FA0CF7BE4386604768012678
:101040008E40B7434760C6684FEA410C032707FA52
:101050000CF7BE43C660504E8F0856F827308E07F7
:10106000370F0F26BE4033404C4EB04201D1002610
:1010700028E04B4EB04201D1012623E0494EB04258
:1010800001D102261EE0484EB04201D1032619E0EC
:10109000464EB04201D1042614E0454EB04201D183
:1010A00005260FE0434EB04201D106260AE0424E2B
:1010B000B04201D1072605E0404EB04201D10826DA
:1010C00000E009268F073F0FBE409E4224D18E07C5
:1010D000370F0F2606FA07F32F4E8F0856F82760B2
:1010E0009E432D4F4FEA910C47F82C60344E3668E2
:1010F000964300E010E0324F3E603E1D3668964356
:101100003F1D3E603E1D366896433F1D3E603E1DBE
:10111000366896433F1D3E60491C1029FFF465AFB9
:10112000F0BD024613690B400BB1012000E0002026
:1011300070470AB1816101E00B0483617047426925
:101140004A404261704708B502464FF48030009033
:101150000098084300900098D061D1610098D06158
:10116000D0690090D06900F4803008B1002008BD3B
:101170000120FCE7704710B50446114814300068A0
:10118000204028B10E48143004602046FFF7F2FFDB
:1011900010BD000044380240083801400000024001
:1011A0000004024000080240000C0240001002400F
:1011B0000014024000180240001C024000200240BF
:1011C000003C01407D48006840F080507B49086049
:1011D0000846006820F08050086070470120010236
:1011E00091FAA1F1B1FA81F1754A42F821007047F4
:1011F00000204FF4807191FAA1F1B1FA81F1704AA7
:1012000042F8210070476F49096821F0E001026847
:1012100011436C4A11606C49096821F480316A4AB3
:101220001160111F096821F48031121F1160664995
:10123000091D096821F48031634A121D1160111DD6
:10124000096821F48031121D1160416801F4803178
:10125000B1F5803F07D15C49091F096841F480312D
:10126000594A121F1160416801F40031B1F5003F85
:1012700005D15549096841F48031534A116001791B
:1012800001F0010139B15049091D096841F480316B
:101290004D4A121D1160017901F00201022907D1A6
:1012A00049490831096841F48031474A08321160E0
:1012B00070470120102191FAA1F1B1FA81F1404A61
:1012C00042F8210070470020102191FAA1F1B1FAF3
:1012D00081F13B4A42F8210070473A49496801438D
:1012E000384A51607047374949688143354A5160EF
:1012F0007047364A126822F00402344B1A60012902
:1013000001D130BF02E040BF20BF20BF70472D4A4F
:10131000126822F0030202432A4B1A602B4A126819
:1013200042F00402294B1A60012901D130BF02E0CA
:1013300040BF20BF20BF254A126822F00402234B81
:101340001A6070471F48006840F002001D4908609D
:101350001E48006840F004001C49086000BF00BF40
:1013600030BF7047704710B517481030006800F460
:10137000803030B1FFF7F6FF4FF480301249103162
:10138000086010BD1148006840F002000F49086075
:1013900070470E48006820F002000C490860704752
:1013A0000A48006840F01000084908607047074884
:1013B000006820F01000054908607047203802409E
:1013C00000000E4200700040043C014010ED00E0BF
:1013D000704738B504460025207800F00100002849
:1013E00066D0F648006800F00C0004280DD0F348E1
:1013F000006800F00C00082813D1F048001F0068B6
:1014000000F48000B0F5800F0BD1EC48083800687C
:10141000C0F3404000284BD06068002848D101202C
:1014200038BD0020E549891F087004F089FD054694
:1014300008E004F085FD401B41F28831884201D963
:101440000320EDE7DD4808380068C0F3404000287D
:10145000EFD12079D949891F08706068A0B104F0E4
:101460006FFD054608E004F06BFD401B41F288313A
:10147000884201D90320D3E7D04808380068C0F378
:1014800040400028EFD013E004F05AFD054608E084
:1014900004F056FD401B41F28831884201D90320F7
:1014A000BEE7C64808380068C0F340400028EFD1C6
:1014B000207800F00200022869D1C048006800F0DE
:1014C0000C0058B1BD48006800F00C00082821D17C
:1014D000BA48001F006800F48000D8B9B74808383F
:1014E0000068C0F3400020B1E068012801D001206D
:1014F00096E7B2480838006820F0F800F82292FA1F
:10150000A2F2B2FA82F2216991400843AB4908394C
:1015100008603CE0E06828B30120A949086004F0B5
:101520000FFD054606E004F00BFD401B642801D9C1
:10153000032075E7A14808380068C0F34000002880
:10154000F1D09E480838006820F0F800F82292FA9E
:10155000A2F2B2FA82F22169914008439749083910
:10156000086014E000209649086004F0E9FC054694
:1015700006E004F0E5FC401B642801D903204FE796
:101580008E4808380068C0F340000028F1D1207868
:1015900000F0080008282CD16069A8B10120894911
:1015A000086004F0CDFC054606E004F0C9FC401BD1
:1015B000642801D9032033E780486C300068C0F309
:1015C00040000028F1D014E000207E49086004F0BB
:1015D000B7FC054606E004F0B3FC401B642801D9C3
:1015E00003201DE775486C300068C0F340000028F8
:1015F000F1D1207800F0040004286DD100BF6F48BD
:101600003830006840F080506C4938310860084636
:10161000006800F08050009000BF00BF6A4800687A
:1016200040F480706849086004F08AFC054606E0D2
:1016300004F086FC401B642801D90320F0E66248D0
:10164000006800F480700028F2D000205B49683107
:10165000087004F075FC054608E004F071FC401BBE
:1016600041F28831884201D90320D9E653486830D5
:101670000068C0F340000028EFD1207A4F4968315C
:101680000870A068A0B104F05BFC054608E004F017
:1016900057FC401B41F28831884201D90320BFE644
:1016A000464868300068C0F340000028EFD013E0DF
:1016B00004F046FC054608E004F042FC401B41F201
:1016C0008831884201D90320AAE63C486830006886
:1016D000C0F340000028EFD1A069E8B337480068A4
:1016E00000F00C00082872D0A069022850D1002018
:1016F0003349086604F024FC054606E004F020FCAB
:10170000401B642801D903208AE62C480838006869
:10171000C0F340600028F1D1D4E90701084347F63F
:10172000C07292FAA2F2B2FA82F2616A9140084360
:101730000122A16AC2EB51014FF4403292FAA2F2A7
:10174000B2FA82F2914008434FF0706292FAA2F22C
:10175000B2FA82F2E16A00E03BE0914008431749A7
:10176000091F086001201649086604F0E9FB0546D8
:1017700006E004F0E5FB401B642801D903204FE696
:101780000E4808380068C0F340600028F1D020E01F
:1017900000200B49086604F0D3FB054606E004F080
:1017A000CFFB401B642801D9032039E603480838E1
:1017B0000068C0F340600028F1D10AE00838024018
:1017C00000004742800E474200700040FFE70120C2
:1017D00026E6002024E670B504460E460025FE48A5
:1017E000006800F00F00B0426FD2FB490E7008464F
:1017F000006800F00F00B04201D0012070BD2078D9
:1018000000F00200022807D1F448006820F0F00040
:10181000A1680843F1490860207800F00100002821
:101820003ED06068012807D1EC4808380068C0F352
:101830004040B8B90120E1E76068022802D0606842
:10184000032807D1E54808380068C0F3406048B96C
:101850000120D3E7E14808380068C0F3400008B928
:101860000120CBE7DD48006820F0030061680843F1
:10187000DA49086004F064FB05466068012810D16D
:1018800008E004F05DFB401B41F28831884201D939
:101890000320B3E7D148006800F00C000428F0D121
:1018A000CDE06068022811D108E004F049FB401B3C
:1018B00041F28831884201D903209FE7C748006878
:1018C00000F00C000828F0D1B9E024E0606803289B
:1018D00010D108E004F034FB401B41F2883188420B
:1018E00001D903208AE7BD48006800F00C000328F6
:1018F000F0D1A4E008E004F023FB401B41F2883162
:10190000884201D9032079E7B448006800F00C0050
:101910000028F0D193E0207800F00200022807D1DF
:10192000AE48006820F0F000A1680843AB490860A9
:10193000207800F00100002877D06068012807D1E6
:10194000A64808380068C0F34040B8B9012055E700
:101950006068022802D06068032807D19F480838D1
:101960000068C0F3406048B9012047E79B48083849
:101970000068C0F3400008B901203FE797480068BD
:1019800020F00300616808439449086004F0D8FA25
:1019900005466068012810D108E004F0D1FA401B28
:1019A00041F28831884201D9032027E78B4800683B
:1019B00000F00C000428F0D137E06068022810D154
:1019C00008E004F0BDFA401B41F28831884201D999
:1019D000032013E78148006800F00C000828F0D1CC
:1019E00023E06068032810D108E004F0A9FA401B46
:1019F00041F28831884201D90320FFE67748006828
:101A000000F00C000328F0D10FE008E004F098FA91
:101A1000401B41F28831884201D90320EEE66F482D
:101A2000006800F00C000028F0D16B490E700846E9
:101A3000006800F00F00B04201D00120DEE62078FF
:101A400000F00400042807D16448006820F4E05046
:101A5000E168084361490860207800F00800082820
:101A600008D15E48006820F46040216940EAC10066
:101A70005A4908600F20FEF71FFC0020BEE670B533
:101A800086B006460C46154636BB00BF5348283084
:101A9000006840F00100514928310860084600689C
:101AA00000F00100009000BF00BF881501900220E7
:101AB00002900320049000200390059001A948485B
:101AC000FFF7A0F94548006820F0EC6044EA050102
:101AD00008434249086025E000BF404828300068BC
:101AE00040F004003D49283108600846006800F0D5
:101AF0000400009000BF00BF481501900220029032
:101B00000320049000200390059001A93548FFF7B9
:101B100079F93248006820F0784044EAC50108436A
:101B20002E49086006B070BD01202F49C864704777
:101B300000202D49C864704770B5002100220023A1
:101B40000020264C246804F00C0424B1042C04D09A
:101B5000082C4FD103E025484EE025484CE01F4CAF
:101B6000241F246804F03F011C4C241F246804F443
:101B7000800484B11E4CB4FBF1F5184C241F24687A
:101B800047F6C076344096FAA6F6B6FA86F6F440E2
:101B900005FB04F20FE0154CB4FBF1F50F4C241FCC
:101BA000246847F6C076344096FAA6F6B6FA86F66A
:101BB000F44005FB04F2094C241F246804F440346B
:101BC0004FF4403595FAA5F5B5FA85F5EC40641C5F
:101BD0006300B2FBF3F00FE0003C02400838024023
:101BE0000000024000080240000047420024F400C8
:101BF00000127A007E4800BF00BF70BD10B5FFF72D
:101C00009BFF7C49096801F0F001F02292FAA2F2F0
:101C1000B2FA82F2D140784A515CC84077490860F4
:101C20000846006810BD10B5FFF7E8FF7149096864
:101C300001F4E0514FF4E05292FAA2F2B2FA82F2C9
:101C4000D1406D4A515CC84010BD10B5FFF7D6FFBA
:101C50006849096801F460414FF4604292FAA2F2C7
:101C6000B2FA82F2D140644A515CC84010BD0F21E3
:101C7000016060490839096801F48021B1F5802FBD
:101C800002D1052141600CE05A490839096801F484
:101C90008031B1F5803F02D10121416001E0002196
:101CA000416054490839096801F0010111B101216D
:101CB000C16001E00021C1604E490839096801F0A6
:101CC000F801F82292FAA2F2B2FA82F2D14001614E
:101CD00048496831096801F00401042902D105214D
:101CE00081600AE043496831096801F0010111B1DE
:101CF0000121816001E0002181603E496C31096869
:101D000001F0010111B10121416101E000214161B6
:101D100038490839096801F08071B1F1807F02D13A
:101D20000221816101E0012181613249091F0968B5
:101D300001F48002C2612F49091F096801F03F02C6
:101D400002622C49091F096847F6C072114092FAD5
:101D5000A2F2B2FA82F2D14041622649091F096813
:101D600001F4403101F5803149004FF4403292FADC
:101D7000A2F2B2FA82F2D14081621E49091F0968BB
:101D800001F070614FF0706292FAA2F2B2FA82F240
:101D9000D140C16270470F220260164A126802F0F9
:101DA00003024260134A126802F0F0028260114A94
:101DB000126802F4E052C2600E4A126802F46042F5
:101DC000D20802610E4A126802F00F020A607047E0
:101DD000704710B50748001D006800F0800080289B
:101DE00005D1FFF7F5FF80200249891D087010BD5D
:101DF0000024F40008380240D27D0108901500202C
:101E0000003C02402DE9F0410446002520680569A8
:101E100025F44055E0680543206805612068C568E1
:101E200049F20C6085432169A06808436169084351
:101E3000E169084305432068C5602068456925F4C9
:101E40004075A069054320684561E069B0F5004F21
:101E500072D1FE492068884203D0FD49206888423B
:101E600034D1FFF7F2FE00EBC00101EB0010616816
:101E70004900B0FBF1F06421B0FBF1F6FFF7E5FE9D
:101E800000EBC00101EB001061684900B0FBF1F705
:101E9000FFF7DBFE00EBC00101EB001061684900B9
:101EA000B0FBF1F06421B0FBF1F000EBC00101EBFD
:101EB0000010A7EB8000322101EB00106421B0FB81
:101EC000F1F066F31F1021688860A6E0FFF7ABFE13
:101ED00000EBC00101EB001061684900B0FBF1F0BC
:101EE0006421B0FBF1F6FFF79EFE00EBC00101EBB1
:101EF000001061684900B0FBF1F7FFF794FE00EBBA
:101F0000C00101EB001061684900B0FBF1F06421F1
:101F1000B0FBF1F000EBC00101EB0010A7EB80007B
:101F2000322101EB00106421B0FBF1F066F31F10C9
:101F30002168886071E0FFE7C4492068884203D0C7
:101F4000C3492068884234D1FFF77FFE00EBC0010F
:101F500001EB001061688900B0FBF1F06421B0FB77
:101F6000F1F6FFF772FE00EBC00101EB00106168B3
:101F70008900B0FBF1F7FFF768FE00EBC00101EB51
:101F8000001061688900B0FBF1F06421B0FBF1F052
:101F900000EBC00101EB0010A7EB8000322101EB48
:101FA00000106421B0FBF1F066F31F102168886017
:101FB00033E0FFF738FE00EBC00101EB0010616871
:101FC0008900B0FBF1F06421B0FBF1F6FFF72BFEC6
:101FD00000EBC00101EB001061688900B0FBF1F774
:101FE000FFF721FE00EBC00101EB001061688900E2
:101FF000B0FBF1F06421B0FBF1F000EBC00101EBAC
:102000000010A7EB8000322101EB00106421B0FB2F
:10201000F1F066F31F1021688860BDE8F081704719
:1020200010B504460CB9012010BDA06900B100E054
:1020300000BF94F8390028B9002084F83800204601
:10204000FFF7EDFF022084F839002068C06820F413
:1020500000502168C8602046FFF7D4FE2068006960
:1020600020F49040216808612068406920F02A002F
:10207000216848612068C06840F400502168C86049
:102080000020E063012084F839000020CCE710B57F
:1020900004460CB9012010BD94F8390028B900207D
:1020A00084F838002046FFF7BAFF022084F8390090
:1020B0002068C06820F400502168C8602046FFF7FF
:1020C000A1FE2068006920F4904021680861206822
:1020D000406920F02200216848612068406940F092
:1020E0000800216848612068C06840F400502168F9
:1020F000C8600020E063012084F839000020CAE7AE
:1021000070B504460D460CB9012070BD94F8390035
:1021100028B9002084F838002046FFF780FF02200D
:1021200084F839002068C06820F400502168C86035
:102130002046FFF767FE2068006920F400602168F0
:1021400008612068406920F02A0021684861206801
:10215000006940F48040216808612068006920F02F
:10216000200021680861206800692843216808610F
:102170002068C06840F400502168C8600020E06317
:10218000012084F839000020BFE770B504460D46F1
:1021900016460CB9012070BD94F8390028B900200A
:1021A00084F838002046FFF73AFF022084F839000F
:1021B0002068C06820F400502168C8602046FFF7FE
:1021C00021FE2068006920F49040216808612068A1
:1021D000406920F02A00216848612068006920F0E9
:1021E0000F002168086120680069284321680861A0
:1021F0002068C06820F400602168C8602068C0685A
:1022000030432168C8602068C06840F400502168ED
:10221000C8600020E063012084F839000020BAE79C
:10222000704710B504460CB9012010BD022084F897
:1022300039002046FFF7F4FF0020E06384F83900FE
:1022400000BF84F8380000BF00BFEEE70010014077
:10225000001401402DE9F04104460E4617461D4684
:102260004FF0000803F06CFE80469FBB2BE0681C1B
:1022700048B32DB103F064FEA0EB0800A84222D9B8
:102280002068C06820F080002168C8602068C068AD
:1022900020F020002168C8602068C06820F48070A9
:1022A0002168C8602068406920F001002168486109
:1022B000012084F8390000BF002084F8380000BFF6
:1022C0000320BDE8F081206800683040B04202D1B0
:1022D000012001E003E000200028C8D035E02AE01A
:1022E000681C40B32DB103F02BFEA0EB0800A84200
:1022F00021D92068C06820F080002168C86020686B
:10230000C06820F020002168C8602068C06820F400
:1023100080702168C8602068406920F00100216851
:102320004861012084F8390000BF002084F838009B
:1023300000BF0320C5E7206800683040B04201D1EB
:10234000012000E000200028CAD10020B9E72DE9D3
:10235000F04704460D46164699464FF0000894F89B
:102360003980B8F1010F02D0B8F1220F65D105B163
:1023700016B90120BDE8F08700BF94F838000128A5
:1023800001D10220F6E7012084F8380000BF0020C8
:10239000E06394F83900222803D1322084F8390010
:1023A00002E0122084F83900A684E68428E0E08C5C
:1023B000401EE084A068B0F5805F14D14B46002237
:1023C00080212046FFF746FF08B10320D2E72F46C1
:1023D0003888C0F3080021684860206908B9AD1C3E
:1023E0000EE06D1C0CE04B46002280212046FFF7DA
:1023F00031FF08B10320BDE715F8010B21684860E3
:10240000E08C0028D3DC4B46002240212046FFF719
:1024100021FF08B10320ADE794F83900322803D139
:10242000222084F8390002E0012084F8390000BF3E
:10243000002084F8380000BF9CE702209AE72DE9CD
:10244000F04704460D46164699464FF0000894F8AA
:102450003980B8F1010F02D0B8F1120F69D105B17E
:1024600016B90120BDE8F08700BF94F838000128B4
:1024700001D10220F6E7012084F8380000BF0020D7
:10248000E06394F83900122803D1322084F839002F
:1024900002E0222084F83900A685E68535E0E08D4B
:1024A000401EE085A068B0F5805F18D14B46002241
:1024B00020212046FFF7CEFE08B10320D2E72F46A9
:1024C000206930B920684068C0F308003880AD1C2E
:1024D0001BE020684068C0B238806D1C15E04B4698
:1024E000002220212046FFF7B5FE08B10320B9E7FE
:1024F000206920B92068406805F8010B05E02068D4
:10250000406800F07F0005F8010BE08D0028C6DC74
:1025100094F83900322803D1122084F8390002E0FF
:10252000012084F8390000BF002084F8380000BF83
:1025300098E7022096E730B50346002493F8394027
:10254000012C01D0222C37D101B10AB9012030BDB4
:1025500000BF93F83800012801D10220F7E70120DD
:1025600083F8380000BF19629A84DA840020D863A7
:1025700093F83900222803D1322083F8390002E091
:10258000122083F839001868C06840F480701D6814
:10259000E8601868406940F001001D68686100BF8C
:1025A000002083F8380000BF1868C06840F0800041
:1025B0001D68E8600020CAE70220C8E730B503467E
:1025C000002493F83940012C01D0122C37D101B1ED
:1025D0000AB9012030BD00BF93F83800012801D1AD
:1025E0000220F7E7012083F8380000BF99629A853E
:1025F000DA850020D86393F83900122803D13220FD
:1026000083F8390002E0222083F839001868C06896
:1026100040F480701D68E8601868406940F001006F
:102620001D68686100BF002083F8380000BF18688B
:10263000C06840F020001D68E8600020CAE7022062
:10264000C8E7704770B50546AC6B0020E085E084B4
:10265000012084F83900E06B40F01000E063204670
:10266000FFF7EFFF70BD704770B50446A56B2846B5
:10267000FFF7F9FF70BD704770B50546AC6B286871
:10268000006800F4807070B90020E0842068406920
:1026900020F08000216848612068C06840F0400058
:1026A0002168C86002E02046FFF7E5FF70BDF7B57E
:1026B00004461546002794F83970012F01D0222FC7
:1026C00041D1019800B10DB90120FEBD00BF94F8C1
:1026D0003800012801D10220F7E7012084F83800F2
:1026E00000BF01982062A584E5840020E06394F88F
:1026F0003900222803D1322084F8390002E0122068
:1027000084F83900F748216BC863F748216B0864E7
:10271000F648216B886401AE23681A1D31682B4688
:10272000206BFEF72BF96FF04000216808602068ED
:10273000406940F080002168486100BF002084F8B3
:10274000380000BFC1E70220BFE7704770B50446FC
:10275000A56B2846FFF7F9FF70BD704770B50546B9
:10276000AC6B2868006800F4807090B90020E085A8
:102770002068406920F040002168486194F83900E1
:10278000322803D1122084F8390002E0012084F8B5
:1027900039002046FFF7E1FF70BDF7B50446154646
:1027A000002794F83970012F01D0122F3CD10198E5
:1027B00000B10DB90120FEBD00BF94F8380001281A
:1027C00001D10220F7E7012084F8380000BF01980A
:1027D000A062A5850020E06394F83900122803D197
:1027E000322084F8390002E0222084F83900C04801
:1027F000616BC863BF48616B0864BC48616B8864E7
:1028000001AE32682368191D2B46606BFEF7B6F8DF
:102810002068406940F040002168486100BF002006
:1028200084F8380000BFC6E70220C4E7014600BFB5
:1028300091F83800012801D102207047012081F869
:10284000380000BF91F83900122806D108684069A5
:1028500020F080000A6850611AE091F839002228BF
:1028600006D10868406920F040000A6850610FE016
:1028700091F8390032280BD10868406920F08000B7
:102880000A6850610868406920F040000A68506199
:1028900000BF002081F8380000BF00BFCDE708B5B9
:1028A000014600BF91F83800012801D1022008BD7F
:1028B000012081F8380000BF91F83900122806D1B4
:1028C0000868406940F080000A6850612CE091F887
:1028D000390022280FD100BF0868006800900868FE
:1028E0004068009000BF00BF0868406940F04000A9
:1028F0000A68506118E091F83900322814D100BFFD
:1029000008680068009008684068009000BF00BF39
:102910000868406940F080000A68506108684069B2
:1029200040F040000A68506100BF002081F8380084
:1029300000BF00BFBBE710B504462068406920F027
:102940008000216848612068406920F040002168CB
:102950004861206B10B1206BFEF745F8606B10B139
:10296000606BFEF740F8012084F83900002010BDAC
:1029700010B504462068C06820F040002168C86097
:1029800094F83900322803D1222084F839000EE06F
:102990002068C06820F480702168C86020684069A1
:1029A00020F0010021684861012084F839002046A8
:1029B000FFF761FE002010BD10B50146002391F81D
:1029C0003930122B01D0322B2CD18868B0F5805FC2
:1029D0000FD10A6A1088C0F308000C6860600869AB
:1029E00018B9086A801C086209E0086A401C08627D
:1029F00005E00C6A601C086220780C686060C88C76
:102A0000401E80B2C88458B90868C06820F08000B1
:102A10000C68E0600868C06840F040000C68E06046
:102A2000002010BD0220FCE770B50446002694F893
:102A30003960222E01D0322E52D1A068B0F5805FCD
:102A400013D1A56A206940B920684068C0F3080026
:102A50002880A06A801CA06219E020684068C0B28B
:102A60002880A06A401CA06211E0206938B9206863
:102A70004068C1B2A26A501CA062117007E02068D1
:102A8000406800F07F01A26A501CA0621170E08DC6
:102A9000401E80B2E08508BB2068C06820F020009E
:102AA0002168C86094F83900322803D1122084F8D4
:102AB00039000EE02068C06820F480702168C8608A
:102AC0002068406920F0010021684861012084F8F5
:102AD00039002046FFF741FE002070BD0020FCE7D2
:102AE0000220FAE779260008692600084526000832
:102AF0005D2700084D270008F8B50446002500268C
:102B00002068006800F001052068C06800F4807645
:102B10006DB166B100BF2068006800902068406811
:102B2000009000BF00BFE06B40F00100E063206850
:102B30000068C0F340052068406900F001066DB1EF
:102B400066B100BF2068006800902068406800906F
:102B500000BF00BFE06B40F00400E0632068006845
:102B6000C0F380052068406900F001066DB166B1D0
:102B700000BF20680068009020684068009000BF97
:102B800000BFE06B40F00200E06320680068C0F323
:102B9000C0052068406900F001066DB166B100BF54
:102BA00020680068009020684068009000BF00BF67
:102BB000E06B40F00800E06320680068C0F3401557
:102BC0002068C06800F020061DB116B12046FFF74E
:102BD0002BFF20680068C0F3C0152068C06800F0B3
:102BE00080061DB116B12046FFF7E6FE206800689A
:102BF000C0F380152068C06800F040061DB116B112
:102C00002046FFF7B5FEE06B28B1012084F83900BB
:102C10002046FFF716FDF8BD014600BF91F83800C9
:102C2000012801D102207047012081F8380000BF3F
:102C3000022081F839000868C06840F001000A6885
:102C4000D060012081F8390000BF002081F83800F1
:102C500000BF00BFE7E7014600BF91F83800012838
:102C600001D102207047012081F8380000BF022006
:102C700081F839000868C06840F002000A68D06036
:102C8000012081F8390000BF002081F8380000BF22
:102C900000BFE7E7014600BF91F83800012801D1E5
:102CA00002207047012081F8380000BF022081F81F
:102CB00039000868C06820F002000A68D06001206E
:102CC00081F8390000BF002081F8380000BF00BF44
:102CD000E7E70146002200BF91F83800012801D142
:102CE00002207047012081F8380000BF022081F8DF
:102CF00039000868C26822F00C0242F00802086835
:102D0000C260012081F8390000BF002081F838003E
:102D100000BF00BFE5E70146002200BF91F8380080
:102D2000012801D102207047012081F8380000BF3E
:102D3000022081F839000868C26822F00C0242F0D3
:102D400004020868C260012081F8390000BF002039
:102D500081F8380000BF00BFE5E7014691F839006F
:102D600070470146C86B704770B50446002520685F
:102D7000C06800F04000A0B9681E2168C86003F078
:102D8000DFF8054607E003F0DBF8401BB0F57A7F7B
:102D900001D9032070BD2068C06800F04000002801
:102DA000F1D00020F6E7704710B504460CB90120B9
:102DB00010BD607F20B9002020772046FFF7F3FF89
:102DC0000220607700BFCA20216848625320216832
:102DD000486200BF2046FFF7C7FF40B100BFFF2099
:102DE0002168486200BF042060770120E0E7206886
:102DF0008068FE490840216888602169606808434E
:102E000061690843216889680843216888602168EE
:102E1000E068086120680169208941EA0040216872
:102E200008612068C06820F080002168C8602068C0
:102E3000006C20F48020216808642068006CA1697F
:102E400008432168086400BFFF202168486200BF72
:102E5000012060770020ABE7704770B5044600257D
:102E60002068C06820F0A0002168C86003F068F8FE
:102E7000054607E003F064F8401BB0F57A7F01D9FE
:102E8000032070BD2068C06800F020000028F1D049
:102E90000020F6E770B5044600250220607700BFE9
:102EA000CA202168486253202168486200BF20463A
:102EB000FFF75AFF40B100BFFF202168486200BF02
:102EC00004206077012070BD00202168086042F274
:102ED0000110216848602068806800F007002168C0
:102EE000886003F02DF805460DE003F029F8401B3B
:102EF000B0F57A7F07D900BFFF202168486200BF84
:102F000003206077DFE72068C06800F00400002835
:102F1000EBD0206880680020216888604FF6FF7041
:102F200021684861B24821680861002021688861F1
:102F30002168C861216808622168C8622168C86385
:102F400021684864216888642168C8602168086431
:102F50002068806800F0200060B92046FFF77DFF00
:102F600040B100BFFF202168486200BF04206077A5
:102F70000120A8E700BFFF202168486200BF20466B
:102F8000FFF76AFF0020607700BF207700BF00BF17
:102F900099E7014600BF080900EB8000420001F0FC
:102FA0000F001044C0B270470146002203E0521CDB
:102FB000A1F10A00C1B20A29F9DA100741EA10604A
:102FC00070472DE9F04104460D461646002700BF24
:102FD000207F012802D10220BDE8F0810120207766
:102FE00000BF02206077CEB92068806800F0400002
:102FF00000B102E00020E87000BF2878FFF7D4FF9E
:1030000003046878FFF7D0FF43EA0023A878FFF7AE
:10301000CBFF0343E87843EA004716E02068806866
:1030200000F0400020B12878FFF7B3FF074602E028
:103030000020E87000BF28780004697840EA012089
:10304000A9780843E97840EA014700BFCA2021680F
:10305000486253202168486200BF2046FFF784FE83
:1030600060B100BFFF202168486200BF0420607784
:1030700000BF0020207700BF0120ADE75D48384049
:10308000216808602068806820F4802021688860BA
:10309000D5E90301084321688968084321688860ED
:1030A0002068C06820F080002168C86020688068BF
:1030B00000F0200080B92046FFF7CFFE60B100BFCE
:1030C000FF202168486200BF0420607700BF002015
:1030D000207700BF01207FE700BFFF202168486202
:1030E00000BF0120607700BF0020207700BF00BF35
:1030F00072E770B504460B46164600252068806AC4
:10310000586020680069C0F30E009860206800686D
:10311000384900EA0105C5F305401870C5F30620DB
:10312000587005F07F00987005F48000000CD8708E
:103130005EB91878FFF72DFF18705878FFF729FF50
:1031400058709878FFF725FF9870002070BD2DE922
:10315000F04104460D461646002700BF207F012897
:1031600002D10220BDE8F0810120207700BF0220BB
:1031700060774EB9687800F01000102804D16878A4
:1031800000F0EF000A30687086B9E878FFF70CFFAE
:1031900003046878FFF708FF43EA0023A878FFF7E5
:1031A00003FF0343287843EA403711E06878FFF7CC
:1031B000F0FE0746A878FFF7ECFE0746E878000423
:1031C000697840EA0120A9780843297840EA413724
:1031D00000BFCA202168486253202168486200BFAE
:1031E0002046FFF7C1FD98B100BF05E0BFFF8FFF8C
:1031F000FF007F007F7F7F00FF202168486200BFC3
:103200000420607700BF0020207700BF0120A9E7DD
:10321000FE483840216848602068C06820F080007F
:103220002168C8602068806800F0200080B92046CE
:10323000FFF713FE60B100BFFF202168486200BFA6
:103240000420607700BF0020207700BF012089E7BD
:1032500000BFFF202168486200BF0120607700BFE7
:103260000020207700BF00BF7CE770B505460B4605
:103270001646002428684068E44900EA0104200C4E
:10328000D870C4F30420587004F03F009870C4F361
:10329000423018705EB9D878FFF77BFED870587846
:1032A000FFF777FE58709878FFF773FE987000204C
:1032B00070BD2DE9F04704460D4616460027B84676
:1032C000B94600BF207F012802D10220BDE8F08767
:1032D0000120207700BF0220607746BB206880680D
:1032E00000F0400000B102E00020E87000BFE86993
:1032F00000B900E000BF2878FFF756FE03046878A5
:10330000FFF752FE43EA0023A878FFF74DFE034380
:10331000E87843EA004395F82000FFF745FE43EACA
:103320000060E9690843696940EA01082DE0206806
:10333000806800F0400020B12878FFF72AFE804620
:1033400002E00020E87000BFE86928B995F8200085
:10335000FFF71FFE804605E095F82000FFF719FEF5
:10336000804600BF28780004697840EA0120A978E7
:103370000843E97840EA014095F8201040EA0160EE
:10338000E9690843696940EA0108A969686840EA8F
:10339000010900BFCA2021684862532021684862A1
:1033A00000BF686AB0F5807F35D12068806820F45E
:1033B0008070216888602068806820F480502168CF
:1033C000886002F0BDFD074612E002F0B9FDC01BA7
:1033D000B0F57A7F0CD900BFFF202168486200BF9A
:1033E0000320607700BF0020207700BF03206DE737
:1033F0002068C06800F001000028E6D02068C0F80E
:103400001C802068C0F844902068806840F4807078
:103410002168886034E02068806820F400702168AA
:1034200088602068806820F400502168886002F07D
:1034300087FD074612E002F083FDC01BB0F57A7FDE
:103440000CD900BFFF202168486200BF03206077CD
:1034500000BF0020207700BF032037E72068C06846
:10346000C0F340000028E6D02068C0F82080206823
:10347000C0F848902068806840F400702168886037
:1034800000BFFF202168486200BF0120607700BFB5
:103490000020207700BF00BF18E72DE9F047044661
:1034A0000D4616460027B846B94600BF207F0128C2
:1034B00002D10220BDE8F0870120207700BF022062
:1034C000607746BB2068806800F0400000B102E0F1
:1034D0000020E87000BFE86900B900E000BF28786C
:1034E000FFF762FD03046878FFF75EFD43EA0023FF
:1034F000A878FFF759FD0343E87843EA004395F8BD
:103500002000FFF751FD43EA0060E969084369695B
:1035100040EA01082DE02068806800F0400020B1FA
:103520002878FFF736FD804602E00020E87000BFF3
:10353000E86928B995F82000FFF72BFD804605E0E3
:1035400095F82000FFF725FD804600BF287800048D
:10355000697840EA0120A9780843E97840EA014007
:1035600095F8201040EA0160E9690843696940EA7A
:103570000108A969686840EA010900BFCA202168FA
:10358000486253202168486200BF686AB0F5807FB6
:1035900040D12068806820F48070216888602068AD
:1035A000C06800F0800060F4C0702168C86002F05C
:1035B000C7FC074612E002F0C3FCC01BB0F57A7FDF
:1035C0000CD900BFFF202168486200BF032060774C
:1035D00000BF0020207700BF03206BE72068C06891
:1035E00000F001000028E6D02068C0F81C802068A8
:1035F000C0F844902068806840F48070216888603A
:103600002068806840F48050216801E03FFFFF009F
:1036100088603CE02068806820F400702168886041
:103620002068C06800F0800060F420702168C860E5
:1036300002F086FC074612E002F082FCC01BB0F5E7
:103640007A7F0CD900BFFF202168486200BF0320A9
:10365000607700BF0020207700BF03202AE72068A2
:10366000C068C0F340000028E6D02068C0F8208081
:103670002068C0F848902068806840F40070216895
:1036800088602068806840F40050216888609F4806
:10369000006840F400309D4908609C48083000688C
:1036A00040F4003099490831086000BFFF202168CC
:1036B000486200BF0120607700BF0020207700BF74
:1036C00000BFF7E670B504460D46002600BF207F18
:1036D000012801D1022070BD0120207700BF022007
:1036E000607700BFCA202168486253202168486281
:1036F00000BFB5F5807F29D12068806820F48070F4
:10370000216888602068806820F480502168886083
:1037100002F016FC064612E002F012FC801BB0F527
:103720007A7F0CD900BFFF202168486200BF0320C8
:10373000607700BF0020207700BF0320CBE7206820
:10374000C06800F001000028E6D028E0206880680A
:1037500020F40070216888602068806820F40050A0
:103760002168886002F0ECFB064612E002F0E8FBFC
:10377000801BB0F57A7F0CD900BFFF20216848621A
:1037800000BF0320607700BF0020207700BF032028
:10379000A1E72068C068C0F340000028E6D000BF61
:1037A000FF202168486200BF0120607700BF002031
:1037B000207700BF00BF8EE72DE9F04105460C469B
:1037C00016461F4600239846B6F5807F09D14FF470
:1037D000807060622868C3692868406CC0F30E0876
:1037E00008E04FF4007060622868036A2868806C03
:1037F000C0F30E08C3F305402070C3F306206070C9
:1038000003F07F00A07003F48000000CE070C4F8A7
:103810000480C3F3056084F8200003F08040E06179
:1038200003F0803060618FB92078FFF7B2FB207021
:103830006078FFF7AEFB6070A078FFF7AAFBA0707E
:1038400094F82000FFF7A5FB84F820000020BDE8D5
:10385000F081704710B504462068C068C0F30020AE
:1038600078B12068806800F4805050B12046FFF79E
:10387000F0FF2068C06800F0800060F4C07021682C
:10388000C8602068C068C0F3402078B120688068B4
:1038900000F4005050B1204600F0E3FE2068C068FC
:1038A00000F0800060F420702168C8604FF40030A0
:1038B0001649143108600120607710BD70B50446C8
:1038C0000D46002602F03CFB06460AE0681C40B1AB
:1038D00025B102F035FB801BA84202D90320607796
:1038E00070BD2068C068C0F300200028EED02068BA
:1038F000C06800F0800060F4C0702168C8600120DA
:1039000060770020ECE70146487F7047003C0140AB
:1039100030B50346002400BF187F012801D10220E2
:1039200030BD0120187700BF0220587718688068E2
:1039300040F6080520EA05040C4300BFCA201D68B4
:10394000686253201D68686200BF1868006C20F42C
:1039500000301D6828641868006C10431D682864D6
:10396000186884601868806840F400601D68A8606A
:1039700000BFFF201D68686200BF0120587700BFAC
:103980000020187700BF00BFCAE730B50346002407
:1039900000BF187F012801D1022030BD0120187717
:1039A00000BF022058771868806840F6080520EAB2
:1039B00005040C4300BFCA201D68686253201D68BF
:1039C000686200BF186884601868006C20F40030DA
:1039D0001D6828641868006C10431D682864186806
:1039E000806840F400601D68A8601868806840F432
:1039F00000401D68A860FB48006840F40010F94DC5
:103A00002860F8480830006840F40010F54D08358B
:103A1000286000BFFF201D68686200BF0120587742
:103A200000BF0020187700BF00BFB6E701460022A4
:103A300000BF087F012801D10220704701200877CC
:103A400000BF0220487700BFCA200B68586253208D
:103A50000B68586200BF0868806820F400400B685B
:103A600098600868806840F6080320EA0302086846
:103A7000826000BFFF200B68586200BF01204877BA
:103A800000BF0020087700BF00BFD6E72DE9F04750
:103A900006460C46154699460027B8463068006B26
:103AA000D14900EA01073068406BD04900EA0108BB
:103AB000C7F305402070C7F30620607007F07F0051
:103AC000A07007F48000000CE0703068806B6060CC
:103AD0000020E870C8F30420687008F03F00A87068
:103AE000C8F342302870B9F1000F17D12078FFF7E2
:103AF00050FA20706078FFF74CFA6070A078FFF7FA
:103B000048FAA0706878FFF744FA6870A878FFF761
:103B100040FAA8702878FFF73CFA28703068C0682F
:103B200000F0800060F408603168C8600020BDE8E3
:103B3000F08710B50246002300BF107F012801D195
:103B4000022010BD0120107700BF02205077886846
:103B500010B1086840008860D1E9000420438C68F7
:103B60002043CC6820430C6920434C6920438C6976
:103B70002043CC6940EA0403086840EA400040F46E
:103B8000FF4040F4C03040F004041068006CA043D3
:103B9000146820641068006C1843146820640120C5
:103BA000507700BF0020107700BF00BFC9E710B5F5
:103BB0000246002300BF107F012801D1022010BD62
:103BC0000120107700BF02205077886810B1086884
:103BD00040008860D1E9000420438C682043CC6811
:103BE00020430C6920434C6920438C692043CC69F5
:103BF00040EA0403086840EA400040F4FF4040F413
:103C0000C0341068006CA043146820641068006C15
:103C10001843146820641068006C40F004001468B5
:103C200020647048006840F400106E4C20606D48BD
:103C30000830006840F400106A4C0834206001200D
:103C4000507700BF0020107700BF00BFB7E70246E3
:103C500000BF107F012801D102207047012010779A
:103C600000BF022050771068006C88431368186406
:103C70000120507700BF0020107700BF00BFECE7A5
:103C800070477047704710B504462068C068C0F39D
:103C9000C02078B12068806800F4004050B1204610
:103CA000FFF7F0FF2068C06800F0800060F4086053
:103CB0002168C8602068C068C0F3403078B12068CF
:103CC000006C00F0040050B12046FFF7DAFF2068D6
:103CD000C06800F0800060F402502168C86020686D
:103CE000C068C0F3803078B12068006C00F0040038
:103CF00050B12046FFF7C4FF2068C06800F0800084
:103D000060F481402168C8604FF4001035491431D7
:103D100008600120607710BD70B504460D4600268E
:103D200002F00EF906461BE02068C068C0F30030C0
:103D300058B12068C06800F0800060F484502168A9
:103D4000C86004206077012070BD681C40B125B1B7
:103D500002F0F6F8801BA84202D903206077F3E74F
:103D60002068C068C0F3C0200028DDD00120607743
:103D70000020E9E770B504460D46002602F0E0F8A1
:103D800006460AE0681C40B125B102F0D9F8801B54
:103D9000A84202D90320607770BD2068C068C0F3D4
:103DA00040300028EED02068C06800F0800060F449
:103DB00002502168C860012060770020ECE770B5F0
:103DC00004460D46002602F0BBF8064610E0681CCB
:103DD00070B125B102F0B4F8801BA84208D90320C5
:103DE000607770BD003C01407F7F7F003FFFFF0098
:103DF0002068C068C0F380300028E8D02068C06820
:103E000000F0800060F481402168C8600120607784
:103E10000020E6E72DE9F04104460D46164600274E
:103E200000BF207F012802D10220BDE8F0810120DF
:103E3000207700BF0220607700BFCA202168486257
:103E400053202168486200BF2068806800F48060C9
:103E5000E0B102F075F8074612E002F071F8C01BFD
:103E6000B0F57A7F0CD900BFFF202168486200BFFF
:103E70000320607700BF0020207700BF0320D4E735
:103E80002068C068C0F380000028E6D12068806800
:103E900020F480602168886002F052F8074612E042
:103EA00002F04EF8C01BB0F57A7F0CD900BFFF209E
:103EB0002168486200BF0320607700BF00202077A0
:103EC00000BF0320B1E72068C068C0F3800000286D
:103ED000E6D02068806820F00700216888602068AC
:103EE0008068304321688860206845612068806868
:103EF00040F480602168886000BFFF20216848622C
:103F000000BF0120607700BF0020207700BF00BF06
:103F10008BE72DE9F04104460D461646002700BF09
:103F2000207F012802D10220BDE8F0810120207706
:103F300000BF0220607700BFCA202168486253207A
:103F40002168486200BF2068806800F48060E0B1AA
:103F500001F0F6FF074612E001F0F2FFC01BB0F5DA
:103F60007A7F0CD900BFFF202168486200BF032080
:103F7000607700BF0020207700BF0320D4E72068CF
:103F8000C068C0F380000028E6D12068806820F473
:103F900080602168886001F0D3FF074612E001F0DD
:103FA000CFFFC01BB0F57A7F0CD900BFFF2021687E
:103FB000486200BF0320607700BF0020207700BF69
:103FC0000320B1E72068C068C0F380000028E6D075
:103FD000206845612068806820F0070021688860BB
:103FE00020688068304321688860FD48006840F49C
:103FF0008000FB490860FA480830006840F48000FF
:10400000F749083108602068806840F480402168E2
:1040100088602068806840F480602168886000BF04
:10402000FF202168486200BF0120607700BF0020A8
:10403000207700BF00BF77E770B50446002500BFBA
:10404000207F012801D1022070BD0120207700BF10
:104050000220607700BFCA2021684862532021688F
:10406000486200BF2068806820F480602168886012
:104070002068806820F480402168886001F060FF3B
:10408000054612E001F05CFF401BB0F57A7F0CD9C9
:1040900000BFFF202168486200BF0320607700BF97
:1040A0000020207700BF0320CEE72068C068C0F35F
:1040B00080000028E6D000BFFF202168486200BFD2
:1040C0000120607700BF0020207700BF00BFBBE762
:1040D00001460868406980B27047704710B50446D1
:1040E0002068C068C0F3802078B12068806800F440
:1040F000804050B12046FFF7F0FF2068C06800F014
:10410000800060F490602168C8604FF48000B4497A
:10411000143108600120607710BD70B504460D466B
:10412000002601F00DFF06460AE0681C40B125B1EB
:1041300001F006FF801BA84202D90320607770BD02
:104140002068C068C0F380200028EED02068C068D6
:1041500000F0800060F490602168C8600120607702
:104160000020ECE710B50023046804F1500303EBD2
:1041700081031A6010BD02460023106800F150034D
:1041800003EB81031868704770B504460E46154668
:1041900000BF207F012801D1022070BD01202077BF
:1041A00000BF0220607700BFCA2021684862532008
:1041B0002168486200BF2046FEF7D6FD60B100BF0F
:1041C000FF202168486200BF0420607700BF002004
:1041D000207700BF0120E0E72068806840F0800081
:1041E0002168886046EA0500216888612068C06807
:1041F00020F080002168C86000BFFF20216848626D
:1042000000BF0120607700BF0020207700BF00BF03
:10421000C3E710B5044600BF207F012801D102206A
:1042200010BD0120207700BF0220607700BFCA20A8
:104230002168486253202168486200BF2046FEF78B
:1042400093FD60B100BFFF202168486200BF0420D9
:10425000607700BF0020207700BF0120E0E72068E2
:10426000806820F08000216888602068C06820F0A5
:1042700080002168C86000BFFF202168486200BF3D
:104280000120607700BF0020207700BF00BFC7E794
:104290002DE9F04104460D4616461F464FF0000832
:1042A00000BF207F012802D10220BDE8F08101205B
:1042B000207700BF0220607700BFCA2021684862D3
:1042C00053202168486200BF2068C06800F4803035
:1042D000E8B101F035FE804613E001F031FEA0EBBD
:1042E0000800B0F57A7F0CD900BFFF202168486232
:1042F00000BF0320607700BF0020207700BF0320AD
:10430000D3E72068C06800F480300028E5D145EA92
:10431000060038432168C86300BFFF202168486257
:1043200000BF0120607700BF0020207700BF00BFE2
:10433000BBE72DE9F04104460D461646002700BFB5
:10434000207F012802D10220BDE8F08101202077E2
:1043500000BF0220607700BFCA2021684862532056
:104360002168486200BF01F0EBFD074612E001F052
:10437000E7FDC01BB0F57A7F0CD900BFFF20216894
:10438000486200BF0320607700BF0020207700BF95
:104390000320D9E72068C06800F008000028E6D1B3
:1043A0002068806800F01000E0B946EA0500216846
:1043B000C8622068806800F0200000BB2046FEF73D
:1043C0004CFDE0B100BFFF202168486200BF04201F
:1043D000607700BF0020207700BF0120B4E7000015
:1043E000003C014000BFFF202168486200BF04205C
:1043F000607700BF0020207700BF0120A4E700BF46
:10440000FF202168486200BF0120607700BF0020C4
:10441000207700BF00BF97E7024600BF107F01284A
:1044200001D1022070470120107700BF0220507791
:1044300000BFCA201368586253201368586200BF37
:104440001068806820F40020136898601068806805
:104450000843136898601068806840F4000013688F
:10446000986000BFFF201368586200BF012050779A
:1044700000BF0020107700BF00BFD3E7014600BF98
:10448000087F012801D1022070470120087700BF72
:104490000220487700BFCA200A68506253200A6889
:1044A000506200BF0868806820F400000A689060CD
:1044B00000BFFF200A68506200BF0120487700BF9C
:1044C0000020087700BF00BFDEE710B5044600BF3C
:1044D000207F012801D1022010BD0120207700BFDC
:1044E0000220607700BFCA202168486253202168FB
:1044F000486200BF2046FEF737FC60B100BFFF20D6
:104500002168486200BF0420607700BF0020207748
:1045100000BF0120E0E72068806840F010002168BB
:1045200088602068C06820F080002168C86000BFF3
:10453000FF202168486200BF0120607700BF002093
:10454000207700BF00BFC7E710B5044600BF207F3B
:10455000012801D1022010BD0120207700BF0220D8
:10456000607700BFCA2021684862532021684862F2
:1045700000BF2046FEF7F8FB60B100BFFF202168B6
:10458000486200BF0420607700BF0020207700BF92
:104590000120E0E72068806820F010002168886032
:1045A0002068C06820F080002168C86000BFFF203C
:1045B0002168486200BF0120607700BF002020779B
:1045C00000BF00BFC7E7014600BF087F012801D137
:1045D000022070470120087700BF0220487700BF03
:1045E000CA200A68506253200A68506200BF0868F7
:1045F000806840F020000A68906000BFFF200A68D1
:10460000506200BF0120487700BF0020087700BF3C
:1046100000BFDEE7014600BF087F012801D102206C
:1046200070470120087700BF0220487700BFCA20EA
:104630000A68506253200A68506200BF08688068A8
:1046400000F0DF000A68906000BFFF200A68506237
:1046500000BF0120487700BF0020087700BF00BFDF
:10466000DEE7704770B504460D46002601F068FC91
:1046700006460AE0681C40B125B101F061FC801BD0
:10468000A84202D90320607770BD2068C068C0F3DB
:1046900040200028EED02068C06800F0800060F460
:1046A00020702168C860012060770020ECE70000DE
:1046B0008F48006840F081008D49086000208C49D7
:1046C000083108608A4800688A49084088490860BB
:1046D0000020091D0860084600688749084384498E
:1046E000091D08600020824984310860084600687E
:1046F000824908437E49843108607D48006820F47F
:1047000080207B490860002079490C31086070479F
:10471000F8B5044600250026207800F0010070B3AB
:1047200000207749886601F00BFC054606E001F0A1
:1047300007FC401B642801D90320F8BD6C480068C1
:10474000C0F3C0600028F2D147F6C07191FAA1F120
:10475000B1FA81F1606888404FF0E04292FAA2F22B
:10476000B2FA82F2A168914008436149843108603D
:1047700001206349886601F0E3FB054607E00CE091
:1047800001F0DEFB401B642801D90320D5E758481F
:104790000068C0F3C0600028F2D0207800F002006A
:1047A00002287BD100BF52484030006840F0805062
:1047B0004F49403108600846006800F08050009082
:1047C00000BF00BF4F48006840F480704D4908604A
:1047D00001F0B6FB054606E001F0B2FB401B642881
:1047E00001D90320A9E74748006800F48070002839
:1047F000F2D03F487030006800F44070A18901F4A5
:10480000407188424AD03A487030006820F44076BF
:1048100001203D490860002008603548703006607E
:1048200006F0020098B101F08BFB054608E001F0AC
:1048300087FB401B41F28831884201D903207CE785
:104840002B4870300068C0F340000028EFD000BF54
:10485000A08900F44070B0F5407F0CD124480830A6
:10486000006820F4F810294AE16811400843204903
:104870000831086007E01E480830006820F4F8108E
:104880001B49083108601A4870300068A189C1F3DB
:104890000B01084316497031086000BF00204CE747
:1048A00003220260124A8432126847F6C0731A402B
:1048B00093FAA3F3B3FA83F3DA4042600C4A8432EA
:1048C000126802F0E0424FF0E04393FAA3F3B3FA28
:1048D00083F3DA408260064A0832126802F4F81163
:1048E000034A7032126802F440720A43C260704791
:1048F00000380240FFFFF6FA1030000400300020BC
:104900000000474200700040400E4742FFFCFF0F8E
:10491000FC49096821F44031FB4AC2F804131146EE
:10492000D1F8041342681143F64A116001684968DE
:1049300021F480710268516001684A68016942EAA5
:104940000121026851600168496821F040710268E4
:1049500051600168496882681143026851600168CA
:10496000896821F400610268916001688968C26801
:10497000114302689160E54AC16A914218D001680A
:10498000896821F070610268916001688968C26A73
:104990001143026891600168896821F04051026802
:1049A000916001688968026B1143026891600BE0B5
:1049B0000168896821F07061026891600168896806
:1049C00021F04051026891600168896821F002017C
:1049D0000268916001688A68816942EA410102685F
:1049E0009160416AD1B10168496841F4006102688F
:1049F00051600168496821F46041026851600168B2
:104A00004A68816A491E4FF4604393FAA3F3B3FAEC
:104A100083F399400A4301684A6005E001684968E8
:104A200021F40061026851600168C96A21F47001D3
:104A30000268D1620168CA6A018C491E42EA0151CA
:104A40000268D1620168896821F40071026891608E
:104A500001688A68C16942EA41210268916001687F
:104A6000896821F480610268916001688A684169FF
:104A700042EA8121026891607047704710B5044690
:104A80000CB9012010BDA149E06A884200D000BFE6
:104A900094F83D0028B9002084F83C002046FFF738
:104AA000ECFF022084F83D002046FFF731FF002094
:104AB0002064012084F83D0000BF002084F83C0001
:104AC00000BF00BFDEE7704710B504460CB90120F7
:104AD00010BD022084F83D002046FFF7F4FF0020BF
:104AE000206484F83D0000BFF2E708B501460020CD
:104AF000009000BF91F83C00012801D1022008BDC0
:104B0000012081F83C0000BF91F83D00222803D12C
:104B1000322081F83D0002E0122081F83D00086853
:104B2000806800F00100A0B90868806840F00100CA
:104B30000A68906076480068764AB0FBF2F000EBB5
:104B40004000009002E00098401E0090009800286D
:104B5000F9D100BF002081F83C0000BF694800681F
:104B600000F01F0058B90868806800F04050A8B9EC
:104B70000868806840F080400A6890600EE0624AF1
:104B8000086890420AD10868806800F0405028B94F
:104B90000868806840F080400A6890600020AEE7B6
:104BA00001460868806820F001000A6890600120D2
:104BB00081F83D000020704770B504460D46002680
:104BC0002068806800F4806070B12068806800F41C
:104BD000807048B1042084F83D0000BF002084F8B4
:104BE0003C0000BF012070BD01F0AAF9064611E0AB
:104BF000681C78B125B101F0A3F9801BA84209D93E
:104C0000032084F83D0000BF002084F83C0000BF72
:104C10000320E8E72068006800F002000228E7D1DE
:104C200094F83D00252803D1352084F83D0002E0AA
:104C3000152084F83D000020D5E72DE9F041044619
:104C40000D461646002701F07BF9074612E0701C5E
:104C500080B126B101F074F9C01BB0420AD903201B
:104C600084F83D0000BF002084F83C0000BF032012
:104C7000BDE8F081206800682840A842E7D1012DF6
:104C800006D1062084F83D00E81E2168086006E091
:104C9000042084F83D006FF02000216808600020A7
:104CA000E6E708B501460020009000BF91F83C00FF
:104CB000012801D1022008BD012081F83C0000BF7D
:104CC00091F83D00222803D1322081F83D0002E016
:104CD000122081F83D00002008640868806800F018
:104CE0000100F8B90868806840F001000A68906027
:104CF00007480068074AB0FBF2F000EB4000009064
:104D00000DE0000004230140002001400100000FDD
:104D10009015002040420F000098401E009000981F
:104D20000028F9D10868406840F080600A68506047
:104D30000868406840F020000A68506000BF00200A
:104D400081F83C0000BFFE48006800F01F0058B921
:104D50000868806800F04050A8B90868806840F092
:104D600080400A6890600EE0F64A086890420AD1D6
:104D70000868806800F0405028B90868806840F0F2
:104D800080400A689060002095E701460868406806
:104D900020F020000A6850600868406820F0800019
:104DA0000A6850600868806820F001000A68906016
:104DB000012081F83D000020704770477047704720
:104DC00070B504460025002620680068C0F3400541
:104DD00020684068C0F34016002D3ED0002E3CD025
:104DE00094F83D00252803D1352084F83D0002E0E9
:104DF000152084F83D00A06940BB2068806800F061
:104E0000405018BB606960B92068406820F02000FD
:104E1000216848602068406820F080602168486010
:104E200014E0606B08B9206A6063606B401E6063C9
:104E3000606B58B92068406820F020002168486005
:104E40002068406820F08060216848602046FFF7B5
:104E5000B6FF6FF002002168086020680068C0F3A8
:104E6000800520684068C0F3C01655B34EB394F86F
:104E70003D00152803D1352084F83D0002E02520AF
:104E800084F83D0020684068012121EA90252068CF
:104E9000806800F4401008B9012000E000200646B8
:104EA000A06900B135B12EB12068406820F08000C3
:104EB00021684860204600F02DFC6FF00400216856
:104EC00008602068006800F0010520684068C0F3B1
:104ED000801655B14EB1062084F83D006FF00100F8
:104EE000216808602046FFF769FF20680068C0F36A
:104EF000401520684068C0F3806675B16EB104202B
:104F000084F83D00206C40F0010020646FF0200028
:104F1000216808602046FFF750FF70BD70B5054658
:104F2000AC6B042084F83D00206C40F0020020644B
:104F30002046FFF742FF70BD704770B50446A56B71
:104F40002846FFF7F9FF70BD70B50546AC6B94F8C5
:104F50003D00252803D1352084F83D0002E01520CE
:104F600084F83D002046FFF72AFF70BDF8B50446DF
:104F70000D4616460020009000BF94F83C00012822
:104F800001D10220F8BD012084F83C0000BF206858
:104F9000406840F08060216848602068806840F484
:104FA0008070216888606848A16BC8636748A16BFE
:104FB00008646748A16B8864226802F14C0133469B
:104FC0002A46A06BFBF7DAFC122084F83D0000BFF4
:104FD000002084F83C0000BF2068806800F00100D9
:104FE000A0B92068806840F00100216888605948B5
:104FF00000685949B0FBF1F000EB4000009002E07E
:105000000098401E009000980028F9D12068806820
:1050100000F0405028B92068806840F08040216846
:1050200088600020AEE710B504462068806820F054
:105030000100216888602068406820F08060216855
:1050400048602068806820F4807021688860A06BC8
:10505000FBF7C9FC012084F83D00002010BD01468B
:105060000868C06C704718B502460020009000BF69
:1050700092F83C00012801D1022018BD012082F8DD
:105080003C0000BF0868092816D91068C0680B7872
:105090000A3B03EB43040723A34098431368D860FB
:1050A0000B780A3B03EB4303886898401368DB687E
:1050B00018431368D86013E0106800690B7803EB9D
:1050C00043040723A3409843136818610B7803EB4C
:1050D00043038868984013681B6918431368186174
:1050E0004868072817D21068406B0B795B1E03EBEA
:1050F00083041F23A340984313685863088880B231
:105100000B795B1E03EB8303984013685B6B1843BA
:105110001368586340E048680D2826D21068006B79
:105120000B79DB1F03EB83041F23A3409843136811
:105130001863088880B20B79DB1F03EB83030DE053
:105140000423014000200140494F00083B4F000864
:105150001D4F00089015002040420F009840136832
:105160001B6B18431368186316E01068C06A0B794C
:105170000D3B03EB83041F23A34098431368D862BD
:10518000088880B20B790D3B03EB830398401368CA
:10519000DB6A18431368D8623F4B1068984208D105
:1051A0000868122805D13D48006840F48000C3F823
:1051B0000403394B106898421ED10868102802D0A9
:1051C0000868112818D13548006840F40000334BB6
:1051D0001860086810280FD131480068314BB0FBC7
:1051E000F3F000EB80004000009002E00098401EC9
:1051F000009000980028F9D100BF002082F83C0000
:1052000000BF00BF39E7024600BF92F83C0001280A
:1052100001D102207047012082F83C0000BF0869DC
:10522000012806D11068406840F0400013685860BB
:1052300005E01068406820F040001368586010686E
:105240004068194B184013685860106840680B6834
:105250001843136858604868136858628868136870
:1052600098621068406820F01F001368586010684A
:1052700040688B899BB218431368586000BF0020B8
:1052800082F83C0000BF00BFC4E7014691F83D0032
:1052900070470146086C704700200140042301401C
:1052A0009015002040420F00FFFD3FFF18B501465A
:1052B000002000900022002300BF91F83C0001284C
:1052C00001D1022018BD012081F83C0000BF91F8F7
:1052D0003D00122803D1322081F83D0002E0222057
:1052E00081F83D000868806800F00100A0B90868F6
:1052F000806840F001000C68A060FD480068FD4C2B
:10530000B0FBF4F000EB4000009002E00098401E7B
:10531000009000980028F9D1F748006800F01F00BD
:10532000B0B90868806800F4401008B9012000E0B6
:105330000020024608684068012424EA90230AB34A
:1053400003B30868806840F480000C68A06019E02E
:105350000868806800F4401008B9012000E00020CF
:10536000024608684068012424EA9023E34C086858
:10537000A04207D132B12BB10868806840F48000A8
:105380000C68A06000BF002081F83C0000BF00BF97
:1053900098E718B50146002000900022002300BFC6
:1053A00091F83C00012801D1022018BD012081F8AC
:1053B0003C0000BF91F83D00122803D1322081F853
:1053C0003D0002E0222081F83D00002008640868CA
:1053D000806800F00100A0B90868806840F0010012
:1053E0000C68A060C2480068C24CB0FBF4F000EB4F
:1053F0004000009002E00098401E009000980028B5
:10540000F9D10868406840F080000C686060086866
:10541000406840F080600C686060B748006800F049
:105420001F00B0B90868806800F4401008B9012076
:1054300000E00020024608684068012424EA902326
:105440000AB303B30868806840F480000C68A06069
:1054500019E00868806800F4401008B9012000E0F5
:105460000020024608684068012424EA9023A34CE7
:105470000868A04207D132B12BB10868806840F4B7
:1054800080000C68A06000BF002081F83C0000BFD5
:1054900000BF8AE701460868806820F001000A68BA
:1054A0009060012081F83D000020704770B50446EF
:1054B0000D46002600F044FD064611E0681C78B158
:1054C00025B100F03DFD801BA84209D9032084F8D6
:1054D0003D0000BF002084F83C0000BF032070BDE9
:1054E0002068006800F004000428E7D194F83D002B
:1054F000152803D1352084F83D0002E0252084F8EA
:105500003D000020EBE701460868406820F02000DD
:105510000A6850600868406820F080000A6850609F
:105520000868806820F001000A689060012081F816
:105530003D000020704708B5024600200090401F43
:1055400013681860012911D002290BD0032905D056
:1055500004290FD11068806C00900CE01068406C3A
:10556000009008E01068006C009004E01068C06BC8
:10557000009000E000BF00BF009808BD70B5054670
:10558000AC6B042084F83D00206C40F002002064E5
:105590002046FFF712FC70BD70B50446A56B284687
:1055A000FFF7CAFC70BD70B50546AC6B94F83D00C2
:1055B000252803D1352084F83D0002E0152084F829
:1055C0003D002046FFF7FBFB70BDF8B504460D46D5
:1055D00016460020009000BF94F83C00012801D13D
:1055E0000220F8BD012084F83C0000BF206840681C
:1055F00040F0806021684860E06938B13E4800684A
:1056000040F400503D49C1F8040306E03A48006800
:1056100020F400503949C1F804033948A16BC8632C
:105620003848A16B08643848A16B886433462A4621
:105630003149091DA06BFBF7A1F9122084F83D0048
:105640002068806800F00100A0B92068806840F000
:10565000010021688860264800682649B0FBF1F007
:1056600000EB4000009002E00098401E009000987F
:105670000028F9D12068806800F0405028B92068DF
:10568000806840F080402168886000BF002084F876
:105690003C0000BF00BFA4E710B5044600BF94F86B
:1056A0003C00012801D1022010BD012084F83C00FB
:1056B00000BF2068806820F00100216888602068B1
:1056C000406820F08060216848600B48006820F442
:1056D000005009490860A06BFBF785F9012084F8A8
:1056E0003D0000BF002084F83C0000BF00BFDBE7A6
:1056F0009015002040420F0004230140002001408B
:10570000A7550008995500087D5500080146AC488A
:1057100000687047704710B50246AA4BC8699842A6
:1057200000D000BF00BF92F83C00012801D1022048
:1057300010BD012082F83C0000BF0868092816D976
:105740001068C0680B780A3B03EB43040723A340AF
:1057500098431368D8600B780A3B03EB43038868CF
:1057600098401368DB6818431368D86013E010682A
:1057700000690B7803EB43040723A34098431368A5
:1057800018610B7803EB43038868984013681B6922
:105790001843136818611068806B20F44010136878
:1057A00098631068836B088A401E43EA00501368B0
:1057B00098630879C01C0B7CC01A00EB80031F2083
:1057C000984013689B6B8343106883630879C01CFF
:1057D0000B7CC01A00EB8003088880B298401368E5
:1057E0009B6B184313689863764B086A984218D0ED
:1057F0001068806820F470201368986010688068D2
:105800000B6A1843136898601068806820F4401091
:105810001368986010688068CB69184313689860B3
:105820000BE01068806820F470201368986010689E
:10583000806820F4401013689860486930B110689F
:10584000406840F480601368586005E01068406864
:1058500020F4806013685860886930B1106840682F
:1058600040F480501368586005E01068406820F4E8
:105870008050136858604868012804D002280FD06F
:10588000032827D119E0106840696FF30B001368F3
:10589000586110684069CB6818431368586126E066
:1058A000106880696FF30B00136898611068806955
:1058B000CB6818431368986119E01068C0696FF3EA
:1058C0000B001368D8611068C069CB68184313686F
:1058D000D8610CE01068006A6FF30B00136818625F
:1058E0001068006ACB6818431368186200BF00BFD5
:1058F000354B1068984209D10868122806D1304803
:10590000001F006840F48000C3F804032E4B1068A9
:1059100098420DD10868102802D00868112807D1D4
:105920002748001F006840F40000274BC3F8040319
:1059300000BF002082F83C0000BF00BFF8E602462E
:1059400000BF92F83C00012801D1022070470120DD
:1059500082F83C0000BF1A48001F006820F01F00BA
:10596000194BC3F804031846D0F804030B68184316
:10597000154BC3F804031846D0F8040320F4404044
:10598000C3F804031846D0F804034B6818430E4BC1
:10599000C3F804031846D0F8040320F47060C3F879
:1059A00004031846D0F804038B681843064BC3F869
:1059B000040300BF002082F83C0000BF00BFC5E721
:1059C0000823014001000F000020014070B504468B
:1059D0000D4616461421204610F081F92580A66058
:1059E0000A206073A06868B9284612F081F9A060A7
:1059F000A06818B900202080012070BD207B40F0F5
:105A000002002073207B40F0010020730020F4E7A7
:105A100010B5044604B910BD207B00F0020010B19F
:105A2000A06812F03DF900202073208000BFF2E74B
:105A300070B5034600240BB9002070BD58881D883E
:105A4000A84201DB002058801BE05D889888401E3A
:105A5000854206D0988828B95D881888401E8542FE
:105A600000D113E011F8015B5E88701C58809868C3
:105A70008555601CC4B258881D88A84201DB0020EF
:105A80005880101EA2F10105AAB2DED100BF204647
:105A9000D3E730B5034600240BB9002030BD988809
:105AA0001D88A84201DB0020988013E098885D885B
:105AB000A84200D113E09D88681C98809868405DDA
:105AC00001F8010B601C84B298881D88A84201DB94
:105AD00000209880101EA2F10105AAB2E6D100BFF5
